:020000040000FA
:06000000C8EF03F012003E
:020006000000F8
:08000800D9CFE6FFE1CFD9FFDB
:10001000E652DF6AAC94B886010EB06E370EAF6E52
:10002000AB8EAB88AC8AAE50DF6EE552E552E7CFBF
:10003000D9FF1200956A92949296380EE66E24D8F3
:10004000E5520C0EE66E20D8E552010EE66E1CD885
:10005000E552060EE66E18D8E552800EE66E14D80C
:10006000E5521200D9CFE6FFE1CFD9FF8984FE0E19
:10007000DB50836E1BD80C0EE66EA8EC03F0E55245
:10008000E552E7CFD9FF1200D9CFE6FFE1CFD9FF84
:100090008994FE0EDB50836E09D80C0EE66EA8EC38
:1000A00003F0E552E552E7CFD9FF120089860C0E26
:1000B000E66EA8EC03F0E55289960C0EE66EA8EC0D
:1000C00003F0E5521200D9CFE6FFE1CFD9FFFD0ED4
:1000D000DBCFF6FFFE0EDBCFF7FF0800F55011E097
:1000E000FD0EDBCFF6FFFE0EDBCFF7FF0800F5506D
:1000F000E66EB8DFE552FD0EDB2AFE0E01E3DB2AD9
:10010000E6D7E552E7CFD9FF1200D9CFE6FFE1CF1E
:10011000D9FF100EF36EFE0EDBCFF4FFF350F45C4C
:1001200007E2FE0EDB50800FE66EAEDFE5520CD02C
:10013000FE0EDB50EC0FE76EFE0EE7CFDBFFDB5071
:10014000C00FE66EA1DFE552E552E7CFD9FF1200FE
:10015000010EE66E99DFE5520C0EE66EA8EC03F098
:10016000E552120051DF66DF938093829384939E61
:1001700094909492929092920F0EC16E120093807E
:100180009382939893949396939E9292E1DF440E78
:10019000E66E070EE66E97DFE552E552140EE66E48
:1001A000B4DFE552430EE66E070EE66E8CDFE552D5
:1001B000E552F40EE66E010EE66E5EEC03F0E552DB
:1001C000E552C6DF939A939C81B41CD1E66A9DDF09
:1001D000E552360EE66E070EE66E75DFE552E55225
:1001E000140EE66E92DFE552430EE66E070EE66EE3
:1001F0006ADFE552E55281B282D0AADF310EE66EA7
:10020000070EE66E60DFE552E552E80EE66E030E7D
:10021000E66E5EEC03F0E552E5529ADFE66A75DFC2
:10022000E552230EE66E070EE66E4DDFE552E5520F
:10023000E80EE66E030EE66E5EEC03F0E552E55264
:10024000E3D886DF1B0EE66E070EE66E3CDFE55256
:10025000E5528080020EE66EE66AD7D8E552E55296
:10026000809076DF130EE66E070EE66E2CDFE55209
:10027000E5528082020EE66EE66A35D9E552E55215
:10028000809266DF0C0EE66E070EE66E1CDFE5520E
:10029000E552828096D982905BDF070EE66E070EEC
:1002A000E66E11DFE552E5528282E80EE66E030E3D
:1002B000E66E5EEC03F0E552E552829249DF430EB2
:1002C000E66E070EE66EFFDEE552E552C80EE66EFC
:1002D000E66A5EEC03F0E552E5523ADFFE0EE66EAA
:1002E000060EE66EF0DEE552E552F40EE66E010E05
:1002F000E66E5EEC03F0E552E5522ADF83D081B072
:1003000081D026DFFA0EE66E060EE66EDCDEE552E2
:10031000E552E80EE66E030EE66E5EEC03F0E55283
:10032000E55216DFE66AF1DEE552230EE66E070EB1
:10033000E66EC9DEE552E552E80EE66E030EE66EA5
:100340005EEC03F0E552E5525FD802DF1B0EE66E6D
:10035000070EE66EB8DEE552E5528080010EE66ECD
:10036000E66A53D8E552E5528090F2DE130EE66E4F
:10037000070EE66EA8DEE552E5528082010EE66EBB
:10038000E66AB1D8E552E5528092E2DE0C0EE66EE6
:10039000070EE66E98DEE552E552828012D9829011
:1003A000D7DE070EE66E070EE66E8DDEE552E552ED
:1003B0008282E80EE66E030EE66E5EEC03F0E55216
:1003C000E5528292C5DE430EE66E070EE66E7BDED8
:1003D000E552E552C80EE66EE66A5EEC03F0E552C1
:1003E000E552B6DEFE0EE66E060EE66E6CDEE552F9
:1003F000E552F40EE66E010EE66E5EEC03F0E55299
:10040000E552A6DEE1D612001200D9CFE6FFE1CF19
:10041000D9FF040EE126D950FD0FE96EFF0EDA2058
:10042000EA6E010EEE1801E1ED5005E1B80E026E24
:100430000B0E036E04D0580E026E1B0E036E02C02C
:10044000DEFF03C0DDFFD950FD0FE96EFF0EDA209D
:10045000EA6E010EEE1801E1ED5005E1B80E026EF4
:100460000B0E036E04D0580E026E1B0E036E020EAE
:1004700002C0DBFF030E03C0DBFF818EDECFE6FF91
:10048000DDCFE6FF5EEC03F0E552E552819E818A06
:10049000819C880EE66E130EE66E5EEC03F0E5526C
:1004A000E552819A818C880EE66E130EE66E5EEC44
:1004B00003F0E552E552819A819C8188020EDBCFE0
:1004C000E6FF030EDBCFE6FF5EEC03F0E552E552FC
:1004D0008198040EE15C02E2E16AE552E16EE552C8
:1004E000E7CFD9FF1200D9CFE6FFE1CFD9FF040E45
:1004F000E126D950FD0FE96EFF0EDA20EA6E010EFB
:10050000EE1801E1ED5005E1B80E026E0B0E036E20
:1005100004D0580E026E1B0E036E02C0DEFF03C035
:10052000DDFFD950FD0FE96EFF0EDA20EA6E010EF5
:10053000EE1801E1ED5005E1B80E026E0B0E036EF0
:1005400004D0580E026E1B0E036E020E02C0DBFFBB
:10055000030E03C0DBFF818EDECFE6FFDDCFE6FFBB
:100560005EEC03F0E552E552819E818A819C880E03
:10057000E66E130EE66E5EEC03F0E552E552819AEC
:10058000818C880EE66E130EE66E5EEC03F0E5528B
:10059000E552819A819C8188020EDBCFE6FF030E33
:1005A000DBCFE6FF5EEC03F0E552E5528198040EE6
:1005B000E15C02E2E16AE552E16EE552E7CFD9FF84
:1005C0001200818A819C8188100EE66E270EE66EED
:1005D0005EEC03F0E552E552819A819C819812000D
:1005E000060EF66E000EF76E000EF86E00010900A2
:1005F000F550656F0900F550666F03E1656701D03E
:100600003DD00900F550606F0900F550616F090099
:10061000F550626F09000900F550E96E0900F550C8
:10062000EA6E090009000900F550636F0900F550F2
:10063000646F09000900F6CF67F0F7CF68F0F8CFD4
:1006400069F060C0F6FF61C0F7FF62C0F8FF00010B
:10065000635302E1645307E00900F550EE6E63074F
:10066000F8E26407F9D767C0F6FF68C0F7FF69C012
:0E067000F8FF00016507000E665BBFD71200A1
:02067E00D9CFD2
:10068000E6FFE1CFD9FFD950FD0FE96EFF0EDA206A
:10069000EA6E000ED880EE54000EED540BE20C0E04
:1006A000E66ED6EC03F0E552FD0EDB06FE0E01E22F
:1006B000DB06E9D7E552E7CFD9FF1200D9CFE6FF35
:1006C000E1CFD9FFD950FD0FE96EFF0EDA20EA6EB7
:1006D000000ED880EE54000EED540BE20C0EE66EC8
:1006E000A8EC03F0E552FD0EDB06FE0E01E2DB0690
:0A06F000E9D7E552E7CFD9FF120069
:0606FA004C4F5700544173
:100700004B45204F555400444F4E450044525949E3
:100710004E470052494E53494E47005741534849AE
:100720004E47004F425441494E205745494748548F
:10073000004849474800312E4C4F5720322E484937
:10074000474800004D4553494E204241535548000B
:10075000FF0EE350046E480E01D04C0EE76EE72EFC
:10076000FED7E76AE72EFED7042EF7D70000120067
:10077000000EF36E00EE00F0080E01D81200EA60E1
:1007800002D0EE6AFCD7F350E9601200EE6AFCD7A3
:1007900013EE00F023EE00F0F86A019CF0EC02F09A
:0C07A000B2EC00F0BFEC00F0FBD7120040
:0407AC00FF0EE35009
:1007B000E84E1200000000D000D000D0E82EFAD79A
:0207C000120025
:020000040030CA
:0100000024DB
:01000100CE30
:0100020038C5
:010003001EDE
:010005008179
:010006008178
:01000B00A054
:00000001FF
